:020000040800F2
:1000000000000120050300080B030008110300088D
:1000100033030008390300085B03000800000000F8
:100020000000000000000000000000007D03000848
:100030008303000800000000890300088F03000804
:10004000AD030008AD030008AD030008AD030008D0
:10005000AD030008AD030008AD030008AD030008C0
:10006000AD030008AD030008AD030008AD030008B0
:10007000AD030008AD030008AD030008AD030008A0
:10008000AD030008AD030008AD0300080000000048
:10009000000000000000000000000000AD030008A8
:1000A000AD030008AD030008AD030008AD03000870
:1000B000AD030008AD030008AD030008AD03000860
:1000C000AD030008AD030008AD030008AD03000850
:1000D000AD030008AD030008AD03000800000000F8
:1000E000AD030008AD030008AD03000800000000E8
:1000F000000000000000000000000000AD03000848
:1001000000000000AD030008AD030008AD030008C7
:1001100000000000000000000000000000000000DF
:10012000AD030008AD030008AD030008AD030008EF
:10013000AD03000800000000000000000000000007
:10014000000000000000000000000000AD030008F7
:10015000AD030008AD030008AD030008AD030008BF
:10016000AD030008AD03000800000000000000001F
:10017000000000000000000000000000000000007F
:1001800000000000AD0300080000000000000000B7
:10019000AD03000880B596B000AF00F037F94F4BC3
:1001A0007B6524E07B6D1A1D7A651B683B647B6D63
:1001B0001A1D7A651B68FB637B6D1A1D7A651B68C7
:1001C000BB633B6C7B63FB6B3B63BB6BFB623B6B5F
:1001D000BB6207E07A6B131D7B63BB6A191DB962B2
:1001E00012681A60FA6ABB6A9A42F3D800BF7B6D44
:1001F0003B4A9342D6D33B4B3B651AE03B6D1A1DFD
:100200003A651B68BB643B6D1A1D3A651B687B64CD
:10021000BB6C7B627B6C3B627B6AFB6104E0FB69CD
:100220001A1DFA6100221A603A6AFB699A42F6D8EE
:1002300000BF3B6D2C4A9342E0D300F0F5F83A1D25
:1002400007F108031146184600F0CEF8274A284B5C
:10025000D31A9B103B610023FB6007E0244AFB6834
:1002600052F823309847FB680133FB603A69FB681A
:100270009A42F3DC1F4A204BD31A9B103B610023A8
:10028000FB6007E01C4AFB6852F823309847FB6884
:100290000133FB603A69FB689A42F3DC00BFBB683C
:1002A0007A681146184600F06BF9F864134A144B4B
:1002B000D31A9B10BB61BB697B6108E07B69013B82
:1002C0000F4A52F8233098477B69013B7B617B6979
:1002D000002BF3DC00BFF86C00F080F8B4030008DA
:1002E000CC030008CC030008DC030008DC03000892
:1002F000DC030008DC030008DC030008DC03000862
:10030000DC0300082548004700BF80B400AFFEE7CB
:100310001EF0040F0CBFEFF30880EFF30980714665
:100320001F4A104700BF80B483B000AF78603960C7
:10033000FEE780B400AFFEE71EF0040F0CBFEFF342
:100340000880EFF309807146164A104700BF80B459
:1003500083B000AF78603960FEE71EF0040F0CBF79
:10036000EFF30880EFF3098071460F4A104700BF92
:1003700080B483B000AF78603960FEE780B400AF2E
:10038000FEE780B400AFFEE780B400AFFEE780B4C4
:1003900000AF00BFBD4680BC70470000950100085B
:1003A000270300084F0300087103000880B400AF62
:0203B000FEE766
:1003B400480B00080000002024000020480B00081F
:1003C4000000001000000010240000203C00002069
:0803D400000000100000001001
:1003DC0080B582B000AF786000F03CF880B483B098
:1003EC0000AF786039607B6801221A603B68034A71
:1003FC001A6000BF0C37BD4680BC7047000000205F
:10040C0080B500AF00F02AF8024B034A9A6000BF97
:10041C0080BD00BF00ED00E00000000880B500AF1B
:10042C0000F028F800BF80BD80B400AFBFF34F8F41
:10043C0000BF064BDB6803F4E0620449044B134332
:10044C00CB60BFF34F8F00BF00BFFDE700ED00E0B6
:10045C000400FA0580B500AFFFF7E6FF80B400AFEB
:10046C00034B4FF000629A6000BFBD4680BC7047E2
:10047C0000ED00E080B487B000AF00233B610023A7
:10048C007B610223FB600023BB6002237B60344B47
:10049C009B6803F00C033B613B69082B11D03B6953
:1004AC00082B44D83B69002B03D03B69042B04D0A8
:1004BC003DE02C4B2C4A1A603DE02A4B2B4A1A602B
:1004CC0039E0274B5B689B0D03F00103BB60244BA9
:1004DC005B6803F03F037B60BB68002B0CD0234AA6
:1004EC007B68B2FBF3F31E4A52689209C2F308020E
:1004FC0002FB03F37B610BE01B4A7B68B2FBF3F35B
:10050C00174A52689209C2F3080202FB03F37B619B
:10051C00134B5B681B0C03F0030301335B00FB60A4
:10052C007A69FB68B2FBF3F30E4A136003E00D4BE0
:10053C000D4A1A6000BF0A4B9B681B0903F00F039E
:10054C000B4AD35C3B61074B1A683B6922FA03F3F5
:10055C00044A136000BF1C37BD4680BC704700BF07
:10056C0000380240080000200024F40000127A0039
:10057C00380B000880B500AF00F05AF9002000F0ED
:10058C0065F9032000F062F96E2000F05FF900F0CD
:10059C0021FA00F0AFF9002000F0ACFA03461A463D
:1005AC00564B1A60012000F0A5FA03461A46544B2C
:1005BC001A60544B1B68012B1ED1504B1B68002B2F
:1005CC001AD1514B1B68002B16D0504B1B68002BBB
:1005DC000CBF01230023DBB21A464C4B1A604B4B69
:1005EC001B68002B02D0012B03D006E000F0EEF8C4
:1005FC0003E000F0D7F800E000BF454B1B68012B6F
:10060C0021D13F4B1B68002B1DD1404B1B68002B8D
:10061C0019D13D4B1B68002B0CBF01230023DBB20F
:10062C001A46394B1A60384B1B68002B02D0012B31
:10063C0003D005E000F0AEF802E000F091F800BF46
:10064C00344B00221A60314B1B68002B0AD12E4B05
:10065C001B68002B06D000F07FF90346002B01D05D
:10066C0000F0CEF8294B1B68002B12D1264B1B68CF
:10067C00002B0ED000F094F90246274B1B689A42CF
:10068C0007D100210F2000F011FA234B4FF0FF325D
:10069C001A60204B1B68002B26DD00F081F9024606
:1006AC001E4B1B689A421FD11D4B1B78002B0CBF95
:1006BC0001230023DBB219460A2000F0F7F9184B8E
:1006CC001B78002B0CBF01230023DBB21A46144B02
:1006DC001A70124B1B6803F5FA73104A13600D4B1A
:1006EC001B68013B0B4A1360044B1B68054A1360E3
:1006FC00034B1B68064A13604DE700BF280000201F
:10070C002C0000200C0000201800002014000020F9
:10071C0010000020300000201C00002034000020BD
:10072C003800002080B582B000AF786001210A202B
:10073C0000F0BCF9074B4FF4FA721A607B68013B6E
:10074C00054A1360054B01221A7000BF0837BD46DD
:10075C0080BD00BF34000020300000203800002095
:10076C0080B500AF42F2107000F0DAF800210520DD
:10077C0000F09CF900210A2000F098F901210F20CB
:10078C0000F094F9024B4FF47A721A6000BF80BDEE
:10079C001C00002080B500AF01210F2000F086F96D
:1007AC0000BF80BD80B500AF4FF4FA6000F0B8F820
:1007BC000021052000F07AF900210F2000F076F9D5
:1007CC000420FFF7AFFF00BF80BD000080B500AF75
:1007DC0042F2107000F0A4F80121052000F066F937
:1007EC0001210F2000F062F90220FFF79BFF034B61
:1007FC004FF4FA621A6000BF80BD00BF1C000020DD
:10080C0080B500AF094B01221A604FF4FA6000F07A
:10081C0087F80021052000F049F900210A2000F09A
:10082C0045F90420FFF77EFF00BF80BD14000020B7
:10083C0080B400AF044B1B68034A43F00103136000
:10084C0000BFBD4680BC70470038024080B485B004
:10085C0000AF0346FB71FB795B09FB73FB7903F07B
:10086C001F03BB73FB7B032B36D801A252F823F07A
:10087C008D080008A3080008B9080008CF08000874
:10088C00184B1B68BA7B012101FA02F21146154A7A
:10089C000B43136021E0144B1B68BA7B012101FA56
:1008AC0002F21146104A0B43136016E00F4B1B6803
:1008BC00BA7B012101FA02F211460C4A0B43136078
:1008CC000BE00B4B1B68BA7B012101FA02F21146BB
:1008DC00074A0B43136000E000BF00BF1437BD464E
:1008EC0080BC7047303802403438024040380240F7
:1008FC004438024080B500AF4020FFF7A7FF074BFC
:10090C001B6840F6B7329A62044B1B685A69034B5A
:10091C001B6842F001025A6100BF80BD200000201C
:10092C0080B483B000AF78600A4B1B6800225A6217
:10093C00084B1B687A68DA62064B1B681A68054B11
:10094C001B6842F001021A6000BF0C37BD4680BC28
:10095C00704700BF2000002080B483B000AF0F4B65
:10096C001B685A6A0D4B1B68DB6A013B9A420FD11C
:10097C000A4B1B681B6803F00103002B08D0074BC4
:10098C001B681B695BB203F00103FB71012300E0E0
:10099C00002318460C37BD4680BC70472000002051
:1009AC0080B500AFFFF7D8FF0346002B02D06FF0E5
:1009BC0070430BE0064B1B681B6803F00103002B14
:1009CC0001D1002302E0024B1B685B6A184680BD14
:1009DC002000002080B485B000AF0023FB6005230D
:1009EC00FB6027E02F4B7B607B681B68FA6852002A
:1009FC00032101FA02F2D2431A407B681A607B6829
:100A0C001B68FA685200012101FA02F21A437B6852
:100A1C001A607B685B680121FA6801FA02F2D24322
:100A2C001A407B685A607B685A687B685A60FB681E
:100A3C000533FB60FB680F2BD4D90023FB6028E047
:100A4C00194BBB60BB681B68FA685200032101FAA2
:100A5C0002F2D2431A40BB681A60BB681A68BB68C2
:100A6C001A60BB68DB68FA685200032101FA02F2D3
:100A7C00D2431A40BB68DA60BB68DB68FA68520084
:100A8C00012101FA02F21A43BB68DA60FB680133F8
:100A9C00FB60FB68012BD3D900BF00BF1437BD46E8
:100AAC0080BC7047000C02400000024080B485B04E
:100ABC0000AF03460A46FB711346BB710C4BFB603F
:100ACC00FB685B69FA79012101FA02F2D2431A4000
:100ADC00FB685A61FB685B69B979FA7901FA02F231
:100AEC001A43FB685A6100BF1437BD4680BC70477F
:100AFC00000C024080B485B000AF0346FB710023AC
:100B0C00FB73094BBB60BB681B69FA79012101FAC5
:100B1C0002F21A40FB7922FA03F3FB73FB7B1846B3
:100B2C001437BD4680BC7047000002400000000036
:0C0B3C0000000000010203040607080985
:100B480024000020000000000024F4000100000040
:100B5800010000000100000001000000FFFFFFFF8E
:040B68000000004049
:040000050800019559
:00000001FF
